:100000000C9466000C94CB020C94CB020C94CB02A3
:100010000C94CB020C94CB020C94CB020C94CB022C
:100020000C94CB020C94CB020C94CB020C94CB021C
:100030000C94CB020C94CB020C94CB020C94CB020C
:100040000C94CB020C94CB020C94CB020C94CB02FC
:100050000C94CB020C94CB020C94CB020C94CB02EC
:100060000C94CB020C94CB020C94CB020C94CB02DC
:100070000C94CB020C94CB020C94CB020C94CB02CC
:100080000C94CB020C94CB020C94CB020C94CB02BC
:100090000C94CB020C94CB020C94CB020C94CB02AC
:1000A0000C94CB020C94CB020C94CB020C94CB029C
:1000B0000C94CB02010001450005A40145016580B7
:1000C0000165017A0005E9017A017D8011241FBED6
:1000D000CFEFD8E0DEBFCDBFE4EBF0E040E017C0EB
:1000E000B591A59135912591059107FD0CC095918C
:1000F0008591EF01F92FE82F05900D92A217B30714
:10010000D9F7FE0104C01D92A217B307E1F7EC3C3A
:10011000F40731F70E9418020C94A602F894FFCF5E
:10012000EF92FF920F931F93CF93DF93CDB7DEB77C
:10013000E2970FB6F894DEBF0FBECDBF8C017B01F6
:1001400044E050E060E071E00E948801892B89F46E
:1001500089E091E00E946302C7010E94630288E186
:1001600091E00E946302B70180E090E00E948D025E
:1001700016C044E050E06AE171E0C8010E948801C5
:10018000892B69F442E350E0BE016F5F7F4F80E04E
:1001900090E00E944002CE0101960E946302E29626
:1001A0000FB6F894DEBF0FBECDBFDF91CF911F9188
:0801B0000F91FF90EF900895FC
:1001B8000F931F93CF93DF93EC018B01892B31F4BD
:1001C800C0917A01D0917B01209751F1B801CE01FD
:1001D8000E94C401C80FD91F8881811105C01092DF
:1001E8007B0110927A011DC0B801CE010E94A701BF
:1001F800FE01E80FF91FF0937B01E0937A018081FB
:10020800882341F0CF01019690937B0180937A0176
:10021800108204C010927B0110927A01CE0102C0B4
:0E02280080E090E0DF91CF911F910F9108953B
:100236000F931F93CF93DF93CDB7DEB7E2970FB639
:10024600F894DEBF0FBECDBF85E291E00E94630247
:100256000E9457018C01892BD9F342E350E0BE017D
:100266006F5F7F4F80E090E00E94400242E050E0E6
:10027600BE016F5F7F4FC8010E948801892B29F458
:1002860086E391E00E94630204C08FE391E00E943E
:100296006302E2960FB6F894DEBF0FBECDBFDF91C4
:0802A600CF911F910F91089503
:1002AE00CF930E94C302C82F0E94BB02CD3011F023
:1002BE00CA3089F4E0917C01EE23E1F0F0E0EB5BD3
:1002CE00FE4F108288E791E00E94630210927C013B
:1002DE0085E491E014C0E0917C01EF3170F481E08F
:1002EE008E0F80937C01F0E0EB5BFE4FC08380E0CD
:1002FE0090E005C080E090E002C080E090E0CF91F9
:02030E00089550
:10031000CF93DF9341155105A9F0DC01FB01EF01FB
:100320008D91882351F09191992339F041305105F5
:1003300021F041505109891791F390E02881821BE7
:0E034000910902C080E090E0DF91CF91089516
:10034E00A0E0B0E0EDEAF1E00C94EB018C016B0162
:10035E00EC017E01E01AF10A6991662341F0062E46
:10036E00000C770BC6010E949A02892B91F3C701EC
:0A037E00CDB7DEB7E8E00C940702EB
:10038800A0E0B0E0EAECF1E00C94EB018C016B0129
:10039800EC017E01E01AF10A6991662341F0062E0C
:1003A800000C770BC6010E949A02892B91F7C701AE
:0A03B800CDB7DEB7E8E00C940702B1
:1003C2002F923F924F925F926F927F928F929F9263
:1003D200AF92BF92CF92DF92EF92FF920F931F9351
:1003E200CF93DF93CDB7DEB7CA1BDB0B0FB6F89402
:0803F200DEBF0FBECDBF099470
:1003FA002A88398848885F846E847D848C849B84AB
:10040A00AA84B984C884DF80EE80FD800C811B81B8
:10041A00AA81B981CE0FD11D0FB6F894DEBF0FBEE7
:06042A00CDBFED010895B5
:1004300087E690E00E94800285E691E00E946302D8
:100440000E941B0103C00E945701EC012097D9F3C1
:08045000CE010E942C02FACF3C
:10045800CF93DF9363E271E00E94DC00EC0163E27A
:1004680071E080E090E00E94DC00BC01CE010E94B7
:080478009000DF91CF9108957F
:100480000F931F93CF93DF938B01EA01BC01C80147
:100490000E945302C00FD11F21971882DF91CF9184
:0604A0001F910F91089569
:1004A600DC01CB01FC01F999FECF06C0F2BDE1BD2E
:1004B600F89A319600B40D9241505040B8F708951D
:1004C600CF93DF93EC018881882331F021960E9437
:0E04D600BB0289918111FBCFDF91CF91089578
:1004E400262FF999FECF1FBA92BD81BD20BD0FB64C
:0C04F400F894FA9AF99A0FBE0196089548
:100500001092C00028E12093C1009093C500809311
:0A051000C40086E08093C200089545
:10051A00FB01DB010D900020E9F7AD01461B570BEB
:0A052A00BC01CF010E94B102089548
:10053400FC012E2F9F2F8191861721F08111F9CF75
:0805440090E00895822F089554
:10054C00EC010E94D0020E94CF02CE010E94D10287
:06055C00CE010E94CD0259
:10056200DC01CB0103C02D910E9473024150504027
:04057200D0F7089521
:10057600E0ECF0E0908195FFFDCF8093C6000895F2
:10058600E0ECF0E080818823ECF78091C6000895C6
:040596000C940000C1
:04059A000E948E002D
:02059E000895BE
:0205A0000895BC
:0205A2000895BA
:1005A40073657475736572200053657474696E673E
:1005B40020757365723A20000A0067657475736567
:1005C4007220002000456E74657220757365726E2A
:1005D400616D653A2000537563636573730A004661
:0505E40061696C0A00D2
:1005E90057656C636F6D6520746F204156522D4FAE
:0305F900530A00A2
:0205FC000A00F3
:00000001FF
