:100000000C9469000C9460100C9460100C946010B7
:100010000C9460100C9460100C9460100C946010A0
:100020000C9460100C9460100C9460100C94601090
:100030000C9460100C9460100C9460100C94601080
:100040000C9460100C9460100C9460100C94601070
:100050000C9460100C9460100C9460100C94601060
:100060000C9460100C9460100C9460100C94601050
:100070000C9460100C9460100C9460100C94601040
:100080000C9460100C9460100C9460100C94601030
:100090000C9460100C9460100C9460100C94601020
:1000A0000C9460100C9460100C9460100C94601010
:1000B0000C9460100100010280010202E70020CED2
:1000C00002E7030780030703460022B30346034900
:1000D000800011241FBECFEFD8E0DEBFCDBFE4EB20
:1000E000F0E040E017C0B591A591359125910591BB
:1000F00007FD0CC095918591EF01F92FE82F059030
:100100000D92A217B307D9F7FE0104C01D92A217E2
:10011000B307E1F7E13DF40731F70E94180F0C94A3
:060120000810F894FFCF67
:10012600AAE9B0E0E9E9F0E00C94B50E6C017A01B9
:10013600C756DF4F79836883C959D040A12CB12CAB
:1001460066246A94762C90E8492E512C25E2222EBC
:10015600C756DF4F68817981C959D040FB0180813C
:10016600882309F471C3CF57DF4F19821882C1580B
:10017600D040CD57DF4F79826882C358D040CB57E5
:10018600DF4F19821882C558D04081E090E08C0F6D
:100196009D1FC957DF4F99838883C758D040C757DB
:1001A600DF4F59824882C958D040FB0100E010E079
:1001B6008191811116C001151105C1F0A801C60172
:1001C6000E945E0EC756DF4F88819981C959D0407B
:1001D600800F911FC756DF4F99838883C959D04036
:1001E60005C0853241F30F5F1F4FE2CFC756DF4F81
:1001F600E881F981C959D0408081853209F012C35E
:100206004F019FEF891A990AC756DF4F9982888254
:10021600C959D040C756DF4F88819981C959D04006
:10022600DC012C912B3241F4CF57DF4F28813981E5
:10023600C158D04024600BC02C32BCF02D3249F599
:10024600CF57DF4F28813981C158D0402160CF5721
:10025600DF4F39832883C158D0400196C756DF4FF8
:1002660099838883C959D040D5CF203241F4CF57DE
:10027600DF4F28813981C158D0402860E8CF23322A
:1002860091F4CF57DF4F28813981C158D040206182
:10029600DECF203341F4CF57DF4F28813981C15853
:1002A600D0402260D4CF2A3289F50196C756DF4F57
:1002B60099838883C959D040D701ED91FC91119754
:1002C600CF0102968D939C9380819181CB57DF4F0E
:1002D60099838883C558D04097FF35C0CF57DF4FE5
:1002E60028813981C158D040B1E02B27CF57DF4F45
:1002F60039832883C158D040919581959109CB5770
:10030600DF4F99838883C558D0401DC00E94430D96
:10031600CB57DF4F99838883C558D040C756DF4FE8
:10032600E881F981C959D0408081082E000C990BCB
:10033600C0970A9740F43196C756DF4FF983E88392
:10034600C959D040EBCFCF57DF4F88819981C1582B
:10035600D04080FF07C08D7FCF57DF4F99838883BA
:10036600C158D040C756DF4FE881F981C959D040FE
:1003760080818E3209F046C0CD57DF4F1982188230
:10038600C358D040CF010196C756DF4F9983888363
:10039600C959D04021812A32C1F43296C756DF4F5F
:1003A600F983E883C959D040D701ED91FC911197A3
:1003B600CF0102968D939C9380819181CD57DF4F1B
:1003C60099838883C358D0401DC00E94430DCD57E2
:1003D600DF4F99838883C358D040C756DF4FE881E3
:1003E600F981C959D0408081082E000C990BC0971D
:1003F6000A9740F43196C756DF4FF983E883C95907
:10040600D040EBCFCE0187569F4F0E94E10D382E8C
:10041600C756DF4FE881F981C959D0408081082E3F
:10042600000C990B0E944A108936910509F456C0B2
:10043600B4F48336910509F46BC144F48532910511
:1004460009F4A2C18136910529F1B4C1843691051A
:1004560009F444C0883691050CF436C1ABC1803727
:10046600910509F4C4C04CF48E36910509F420C1F7
:100476008F36910509F47AC09DC18537910509F437
:1004860051C08837910509F495C08337910509F065
:1004960091C15DC1632D70E0A701CE0185579F4FC5
:1004A6000E94010E892B09F4B0C1C756DF4FE881BF
:1004B600F981C959D040CF010196C756DF4F9983BC
:1004C6008883C959D0402081AE0145575F4FBE0190
:1004D6006F577F4FC6010E945D1094C1632D70E077
:1004E600970141E050E0CE0185579F4F0E94EC08EE
:1004F600892B09F48AC1C756DF4F88819981C9596A
:10050600D0400196C756DF4F99838883C959D0409A
:10051600AE0145575F4FBE016F577F4FC6010E9420
:100526002D0870C1632D70E0970140E050E0CE01C8
:1005360085579F4F0E94EC08892B09F466C1C75660
:10054600DF4F88819981C959D0400196C756DF4F40
:1005560099838883C959D040AE0145575F4FBE0184
:100566006F577F4FC6010E94870B4CC1632D70E009
:10057600970140E050E0CE0185579F4F0E94EC085E
:10058600892B09F442C1C756DF4F88819981C95921
:10059600D0400196C756DF4F99838883C959D0400A
:1005A600AE0145575F4FBE016F577F4FC6010E9490
:1005B600B60A28C1632D70E0970140E050E0CE01F5
:1005C60085579F4F0E94EC08892B09F41EC1C75618
:1005D600DF4FE881F981C959D040CF010196C7564E
:1005E600DF4F99838883C959D040208157C097012E
:1005F60040E050E060EF70E0CE0185579F4F0E94CB
:10060600EC08892B09F401C1C756DF4F888199810F
:10061600C959D0400196C756DF4F99838883C95977
:10062600D04086E0EEE3F3E0DE01AD56BF4F019029
:100636000D928A95E1F7C557DF4F2881CB58D040F8
:10064600C457DF4F3881CC58D040C357DF4F48815D
:10065600CD58D040C257DF4F5881CE58D040C157F1
:10066600DF4F6881CF58D040C057DF4F7881C059DF
:10067600D040CF56DF4F8881C159D040CE56DF4F8C
:100686009881C259D040A0E00E94FC0F31F420E0CE
:1006960030E0AE014D565F4FAFC028E7AE0145577B
:1006A6005F4FBE016F577F4FC6010E94ED06AAC07D
:1006B600632D70E09701A501400F511FCE018557AC
:1006C6009F4F0E944A0AA1C0632D70E0A701CE0188
:1006D60085579F4F0E94010E892B09F496C0C75675
:1006E600DF4FE881F981C959D040CF010196C7563D
:1006F600DF4F99838883C959D0402081AE01455781
:100706005F4FBE016F577F4FC6010E945D107AC0D2
:10071600B0E83B127AC0C756DF4F88819981C95924
:10072600D0400196C756DF4F99838883C959D04078
:10073600D701ED91FC911197CF0102968D939C9371
:100746008081C557DF4F8883CB58D04050C0B0E872
:100756003B125BC0C756DF4F88819981C959D0408B
:100766000196C756DF4F99838883C959D040D70170
:10077600ED91FC911197CF0102968D939C93408148
:10078600518120E030E038C0B0E83B123EC0C75689
:10079600DF4F88819981C959D0400196C756DF4FEE
:1007A60099838883C959D040C557DF4F2882CB58D3
:1007B600D0401DC0C557DF4F2882CB58D040C75602
:1007C600DF4F99828882C959D040CF57DF4F1982AF
:1007D6001882C158D040CB57DF4F19821882C558AE
:1007E600D040CD57DF4F79826882C358D04021E090
:1007F60030E0AE0145575F4FBE016F577F4FC601D0
:100806000E947C0D800F911F0EC0C756DF4F888156
:100816009981C959D0400196C756DF4F998388837D
:10082600C959D040C8018501080F191F0A151B05B3
:100836004CF48FE490E090930101809300018FEFD8
:100846009FEF03C0580184CCC501C656DF4FE2E1D5
:040856000C94D10E1F
:10085A00DF92EF92FF920F931F93CF93DF93CDB75F
:10086A00DEB7C654D1090FB6F894DEBF0FBECDBFAE
:10087A008C017B0182E091E00E94800FC8010E94F6
:10088A00800F86E191E00E94800F47E050E068E126
:10089A0071E0C8010E94210E892BC9F480E291E01F
:1008AA000E94800FD7018D919C910E94800F86E152
:1008BA0091E00E94800FF7016081718180E090E0F1
:1008CA000E94E30F8FE291E00E94800F21C147E06E
:1008DA0050E066E471E0C8010E94210E892B71F490
:1008EA0042E350E0BE016F5F7F4F80E090E00E94DC
:1008FA002B0FCE0101960E94800F0AC147E050E0FB
:10090A006EE471E0C8010E94210E892B61F4D701BF
:10091A006D917C9180E290E00E94E30F86E591E080
:10092A000E94800FF5C047E050E061E771E0C8011E
:10093A000E94210E892B71F442E350E0BE016F5FE1
:10094A007F4F80E290E00E942B0FCE0101960E9419
:10095A00800FDEC069E771E0C8010E949E0F892BF3
:10096A0009F050C0D7011296ED91FC911397309778
:10097A00B9F08081803331F48181883719F482811A
:10098A00811105C08FE791E00E94800F0AC040E103
:10099A0050E060E070E0CF010E945910D62E01C0ED
:1009AA00D12CF701008111810115110531F165EA98
:1009BA0071E0C8010E949E0F892B21F48FEF84B940
:1009CA00D5B8A6C06BEA71E0C8010E949E0F892BB8
:1009DA0021F48FEF87B9D8B89BC061EB71E0C801E9
:1009EA000E949E0F892B21F48FEF8AB9DBB890C041
:1009FA0087EB91E00E94800F8BC085EC91E00E940A
:100A0A00800F86C061EE71E0C8010E949E0F892B9B
:100A1A0009F07AC0D7010D911C910115110509F44D
:100A2A006EC065EA71E0C8010E949E0F892BE1F44D
:100A3A0014B88FEF85B983B18F731F928F9387EEA6
:100A4A0091E09F938F938E010D5C1F4F1F930F931D
:100A5A000E943E0FC8010E94800F0F900F900F90C6
:100A6A000F900F900F9054C06BEA71E0C8010E947A
:100A7A009E0F892BE1F417B88FEF88B986B18F736F
:100A8A001F928F9383EF91E09F938F938E010D5C5A
:100A9A001F4F1F930F930E943E0FC8010E94800FA1
:100AAA000F900F900F900F900F900F9031C061EB45
:100ABA0071E0C8010E949E0F892BE1F41AB88FEFEA
:100ACA008BB989B180951F928F938FEF91E09F9395
:100ADA008F938E010D5C1F4F1F930F930E943E0F41
:100AEA00C8010E94800F0F900F900F900F900F90E7
:100AFA000F900EC087EB91E00E94800F09C085EC31
:100B0A0091E00E94800F04C08BE092E00E94800F67
:100B1A00CA5BDF4F0FB6F894DEBF0FBECDBFDF91C1
:0E0B2A00CF911F910F91FF90EF90DF900895F3
:100B3800A9E0B0E0E2EAF5E00C94B50E4C011B0127
:100B48005A012B834532510524F441E0A416B1041F
:100B580039F486E190E090930101809300014DC043
:100B6800009709F44AC0DC01BC91B887BB2309F49B
:100B780044C08C01E885E03209F493C08E2FEE0F53
:100B8800990B0997059708F48CC028852D3209F030
:100B98008EC0D8011196BC91B8870F5F1F4FE1E056
:100BA800E983E885E03309F095C07801FFEFEF1A93
:100BB800FF0AD8011196BC91B887C5018F7E892B91
:100BC80009F08AC08B2F8F7D8835F9F4F801F281FE
:100BD800F8878F2F8062082E000C990B8156910997
:100BE800CF2EFF0FDD084A9708F46CC0C6010E949B
:100BF800040F892B09F0D7C04701C12CD12C7601ED
:100C08002114310409F049C0DEC0A114B10409F46B
:100C1800D3C0870121E029878B81882309F467C025
:100C28009981911169C044244A94542C642C4FE74B
:100C3800742E1A82C12CD12C7601C5010B2C000C04
:100C4800AA0BBB0B8C839D83AE83BF832885206250
:100C5800022E000C330B21563109A8858A2FAA0FC2
:100C6800990B2A31310508F04DC00E943110875385
:100C78008887E8858E2F0E2E000C990B8A159B0508
:100C88000CF448C04A81442309F480C0211431047B
:100C980009F499C0998591114801D1018D929C92CE
:100CA80092C00F5F1F4FF801F081F88763CFF88576
:100CB800FB3231F4D8011196BC91B8870F5F1F4FF2
:100CC80019826FCFC6010E943110875380310CF40E
:100CD8008DCF92CF198603C0870141E04987A114BF
:100CE800B10409F099CF5AE0A52EB12C95CF442430
:100CF8004A94542C32019DCF412C512C612C20E870
:100D0800722E97CFC0970A9708F0BCCFB885B0531A
:100D1800B887AFCFFA81F1112BC02C813D814E816C
:100D28005F81C701B6010E94600F2E2FEE0F330BB3
:100D3800440B550BDC01CB01820F931FA41FB51F79
:100D48008C159D05AE05BF0540F02B812223A1F02F
:100D5800481659066A067B0678F482E290E090937A
:100D6800010180930001D301C201E1E0EA8304C0DC
:100D7800D701C601F1E0FA830F5F1F4FF801F08138
:100D8800F88721E029876C017D0160CF898188235C
:100D980009F47CCFF094E094D094C094C11CD11C89
:100DA800E11CF11C73CF780142E0E40EF11C1986B6
:100DB80090E1A92EB12C05C081E0898788E0A82E92
:100DC800B12C870129CFC701B6012996E2E10C941D
:020DD800D10E3A
:100DDA00A4E1B0E0E3EFF6E00C94B50E98878F83B8
:100DEA007A8369835C8B4B8B122FDB011296ED9110
:100DFA00FC91139714962D913C9115973E832D8360
:100E0A00CD90DC90119716962D903C901797F7FD90
:100E1A0003C0E894C1F802C0E1E0F0E0C6018071C5
:100E2A0099279A878987C4FE1FC0AB89BC892C91F0
:100E3A0011963C91119712964C91129713965C91C8
:100E4A00139714966C91149715967C91159716968C
:100E5A008C91169717969C91A0E00E94FC0F21F0A6
:100E6A008D819E81029702C08D819E819601287094
:100E7A0033273C872B87C3FC0197AB89BC894C90ED
:100E8A0011965C90119712966C90129713967C901B
:100E9A00139714968C90149715969C9015971696FE
:100EAA00AC9016971796BC90A981BA811896ED90C6
:100EBA00FC901997B1E0EB1AF108D101AE0DBF1DF4
:100ECA001C929C838B839F01281B390B3E872D879D
:100EDA00C60182709927988B8F87812F012E000C6B
:100EEA00990BDC01A154B109BA8BA98B32E0E31644
:100EFA00F10434F489859A85892B09F04CC073C0B2
:100F0A009201A301B401C501A0E00E94FC0F81F186
:100F1A00B1E0EB1AF108C2018F7099278A30910566
:100F2A0014F4C09602C0895A9F4FE989FA897A97C0
:100F3A0048F49C012062215631092A31310510F406
:100F4A000E943110F101EE0DFF1D80832B813C813F
:100F5A00215031093C832B839201A301B401C501BD
:100F6A0004E00E94420E29013A014B015C01BECF06
:100F7A008D859E85AB81BC818A0F9B1F1816190629
:100F8A003CF21A161B060CF0B5CFEF85F889EF2B49
:100F9A0009F0BECFAFCFAB89BC892C9111963C9199
:100FAA00119712964C91129713965C911397149677
:100FBA006C91149715967C91159716968C911697A5
:100FCA0017969C91A0E00E94FC0F69F0F101EE0DCA
:100FDA00FF1D31971083B2E0EB1AF108F101EE0D13
:100FEA00FF1D80E38083EB85FC85EF2B41F0F1E068
:100FFA00EF1AF108F101EE0DFF1D80E28083A9814D
:10100A00BA8118964D915C911997415051094E1920
:10101A005F09B1016E0D7F1D86012D813E818F8191
:10102A0098850E94DE0B9C01EF81F8858081918171
:10103A0090FF09C0A981BA8112968D919C9113974C
:10104A00821793070CF4C9016496E2E10C94D10E5D
:10105A00ADE0B0E0E3E3F8E00C94B50E9A87898737
:10106A007C836B83FA01DB011296CD90DC90139797
:10107A0014968D919C9115979E838D83ED90FC908B
:10108A001197FA82E98216960D90BC91A02DB88725
:10109A00AF8320803180428053806480758086804F
:1010AA0097808101B42DF52DE62D7B868C869D8651
:1010BA009101A201B301C401A0E00E94FC0F4CF40B
:1010CA000E94700F8901B42FF52FE62F7B878C873A
:1010DA009D87D7FC04C0E894E1F8FA82E98291017D
:1010EA00A201B301C401A0E0ED80FE800E94FC0FC2
:1010FA001CF0898182FF04C081E0E81AF10805C06A
:10110A0083FF03C091E0E91AF108CE0101965C0160
:10111A008AE0C82ED12C2B2F3F2F4E2F5B856C8552
:10112A007D858B819C810E94A509FC019101A20108
:10113A00B301C401A0E00E94FC0F1CF0898182FF68
:10114A0012C031970F8118850E0F1F1F9101A2013E
:10115A00B301C401A0E00E94FC0F14F08BE201C0AD
:10116A008DE2D80108C083FF07C03197AF81B885E7
:10117A00AE0FBF1F80E28C9309811A81AB81BC81BB
:10118A0018964D915C911997415051094E1B5F0B6E
:10119A006F8178856E0F7F1F2D813E8189859A85A3
:1011AA000E94DE0B9C01E985FA858081918190FF7E
:1011BA0009C0AB81BC8112968D919C9113978217BD
:0E11CA0093070CF4C9012D96E2E10C94D10EAE
:1011D8000F931F93CF93DF93FC01D90168387105F2
:1011E80031F194F461387105B1F12CF4603871056E
:1011F80009F478C09FC06238710509F459C0643891
:10120800710509F46FC096C0603A710509F448C0C9
:101218002CF46039710509F44BC08CC0603C710531
:1012280009F476C0603F710509F472C083C0CD919E
:10123800DC911197CE0102968D939C93452B39F042
:101248009881892F880F880B908381835BC0888160
:101258008083118268C0CD91DC911197CE010496EC
:101268008D939C93452B99F088819981AA81BB81A4
:10127800AC01BD01770F440B542FBA0180839183D1
:10128800A283B383448345834683478328C0088168
:1012980019812A813B81008311832283338345C0CE
:1012A800CD91DC911197CE0102968D939C9323C02A
:1012B800CD91DC911197CE0108968D939C937881FE
:1012C80069815A814B813C812D819E818F817083F8
:1012D800618352834383348325839683878381E0A4
:1012E80090E02AC0CD91DC911197CE0102968D93A2
:1012F8009C93452BA1F099812881892F880F880B11
:101308002083918382838383848385838683E6CF46
:10131800CD91DC911197CE0102968D939C93088113
:101328001981008311831282138214821582168216
:101338001782D5CF80E090E0DF91CF911F910F9178
:02134800089506
:10134A00A2E1B0E0EBEAF9E00C94B50EFC010A8BDD
:10135A001B832C83732E642E552E462E7D83CC86BA
:10136A00D886BF82AE82868197819B878A87D5017C
:10137A004D915C91228133818085918501971C0171
:10138A0037FF02C021E030E0EA85FB85E80FF91F4C
:10139A0010824701E1E0F0E0FA83E983C9018E197E
:1013AA009F099E878D87DA01A270BB27B88BAF870A
:1013BA00B885BB0FBB0BB98B1214130474F0A98147
:1013CA00BA81AB2B09F05CC0AE81BF818D919C9133
:1013DA0011978F7E8D939C9353C02A893B814C81B0
:1013EA00572D662D752D842D9D81A0E00E94FC0F3E
:1013FA00B1F1E1E02E1A3108FC85F987AF2EB884E5
:10140A00C988DC2CEC2CFC2C0C2D1C2D2A893B8148
:10141A004C81572D662D752D842D9D810E94C80FF4
:10142A00C90129839A83EA85FB85E20DF31D805D54
:10143A00808381E0881A91082A893B814C81572D43
:10144A00662D752D842D9D810E94CA0F2A8B3B83A0
:10145A004C83752E662E572E482E9D83ADCF8D85D3
:10146A009E85880D991D181619061CF21814190460
:10147A000CF0A5CFEF85F889EF2B09F0BACF9FCFF3
:0A148A00C1016296E2E10C94D10E5C
:10149400CF93DF93DC01F90164387105D9F164F469
:1014A4006138710521F16238710509F440C0603872
:1014B400710509F054C02EC060397105C1F184F47E
:1014C4006838710509F04BC0C081D181CE01029604
:1014D40091838083E881F981ED93FC9340833CC040
:1014E400603A7105B9F0603C7105A1F038C0C08163
:1014F400D181CE01029691838083E881F981ED93B5
:10150400FC93052E000C660B770B4083518362839A
:10151400738322C0C081D181CE01029691838083DE
:10152400E881F981ED93FC935183408315C0C08118
:10153400D181CE01029691838083E881F981ED9374
:10154400FC9351834083852F880F880B8283838388
:10155400848385838683878381E090E002C080E072
:0815640090E0DF91CF910895A2
:10156C00A2E0B0E0ECEBFAE00C94B50E1C014B01E0
:10157C00FA01DB0112962D913C91139714964D9024
:10158C005C9015978D919C9111979A8389831696EF
:10159C006D907C90179737FD03C08D7F9A8389835C
:1015AC00008111812281338144815581668177814B
:1015BC00FE0131965F0188E0C82ED12C7201C40166
:1015CC000E94A509298124FF06C00197F301E80FA9
:1015DC00F91F20E32083298123FF06C00197F30123
:1015EC00E80FF91F20E2208309811A81D401189693
:1015FC004D915C91199741505109481B590BB301FE
:10160C00680F791F9201C1010E94DE0B9C01F10150
:10161C008081918190FF08C0D40112968D919C918C
:10162C001397821793070CF4C9012296E2E10C94EC
:02163C00D10ECD
:10163E000F931F93CF93DF9300D000D0CDB7DEB7BB
:10164E008C018CE192E00E94800FC8010E94800FF5
:10165E0086E191E00E94800F6EE272E0C8010E9466
:10166E00CA0C8C011A8219821C821B826EE272E0F5
:10167E0080E090E00E94CA0C9A8389836EE272E049
:10168E0080E090E00E94CA0C9C838B8380E392E002
:10169E000E94800FC8010E94800F86E191E00E9497
:1016AE00800F89819A81892B61F08FE392E00E94ED
:1016BE00800F89819A810E94800F86E191E00E94BD
:1016CE00800F8B819C81892B61F08CE492E00E94CB
:1016DE00800F8B819C810E94800F86E191E00E9499
:1016EE00800FBE016F5F7F4FC8010E942D040F90C7
:1016FE000F900F900F90DF91CF911F910F91089542
:10170E00A2E0B0E0EDE8FBE00C94B50E3C014B011D
:10171E00FA01DB0112962D913C91139714964D9080
:10172E005C9015978D919C9111979A83898316964B
:10173E002D903C90179737FD03C08D7F9A83898338
:10174E0000811181228133814481558166817781A7
:10175E00FE0131965F018AE0C82ED12C7201C401C0
:10176E000E94A50909811A81D40118964D915C91A8
:10177E00199741505109481B590BB101680F791F38
:10178E009201C3010E94DE0B9C01F30180819181C5
:10179E0090FF08C0D40112968D919C9113978217D9
:0E17AE0093070CF4C9012296E2E10C94D10ECF
:1017BC00A0E1B0E0E4EEFBE00C94B70E5C013B0161
:1017CC006A017901280181E04822552400FD14C0EA
:1017DC00421753078CF487010C191D094801A80105
:1017EC000131110510F040E150E060E270E0CE01F3
:1017FC0001960E9428100AC0A601B301C5010E94DF
:10180C005E0ECE14DF043CF3C60120C0003111057E
:10181C0058F040E150E0BE016F5F7F4FC5010E9460
:10182C005E0E00511109F2CFA4014F705527BE0175
:10183C006F5F7F4FC5010E945E0E4114510429F465
:10184C00A601B301C5010E945E0EC7016096E0E1DE
:04185C000C94D30E07
:1018600088249924F401E401B0E49F93AA279A15EF
:101870008B049C04ED05FE05CF05D007A10798F465
:10188000AD2FDC2FCF2FFE2FE92D982C892E982FEE
:10189000872F762F652F542F432F322F2227B850B2
:1018A00031F7BF9127C01B2EBF91BB27220F331FDB
:1018B000441F551F661F771F881F991F881C991C7E
:1018C000EE1FFF1FCC1FDD1FAA1FBB1F8A149B0426
:1018D000EC05FD05CE05DF05A007B10748F08A1825
:1018E0009B08EC09FD09CE09DF09A00BB10B2160B3
:1018F0001A94E1F62EF49401AF01BE01CD01000C63
:02190000089548
:101902000F931F93CF93DF93DB012D913C9111979E
:1019120030FF25C016964D915C91179714962D9124
:101922003C9115974217530778F41296ED91FC916A
:101932001397808312962D913C9113972F5F3F4FFF
:1019420013963C932E93129716962D913C911797CE
:101952002F5F3F4F17963C932E93169715C01C96F8
:10196200ED91FC911D97309719F48FEF9FEF0CC00A
:101972008B01EC010995892BC1F7F80186819781CA
:10198200019697838683CE01DF91CF911F910F91AC
:021992000895B6
:101994000F931F93CF93DF93EC018B01892B31F4C9
:1019A400C0914603D0914703209751F1B801CE016D
:1019B4000E94980EC80FD91F8881811105C010920A
:1019C4004703109246031DC0B801CE010E947B0E4E
:1019D400FE01E80FF91FF0934703E093460380816B
:1019E400882341F0CF0101969093470380934603E7
:1019F400108204C01092470310924603CE0102C025
:0E1A040080E090E0DF91CF911F910F91089547
:101A1200A0E1B0E0EFE0FDE00C94C10EFB01BA01E1
:101A2200AE014F5F5F4F7A0140E1D7011D924A95A7
:101A3200E9F742E051E05A8349839C838B83F7FFA5
:101A420009C08FE490E090930101809300018FEF31
:101A52009FEF14C0A9018C013197FE83ED83C7016A
:101A62000E94EC0E4F8158852D813E81421753070B
:101A720008F49A01F801E20FF31F10826096E6E083
:041A82000C94DD0ED5
:101A8600AC01FA0190814F5F5F4F9032D1F3292F5D
:101A9600092E000C330B295031092530310588F306
:101AA6009B3209F540E050E0319602C040E050E03C
:101AB60080E090E06AE02191022E000C330B205367
:101AC60031092A30310548F4689FD001699FB00D6D
:101AD6001124CD01821B930BEECF452B49F4919532
:101AE6008195910908959D3209F741E050E0DCCFD8
:021AF600089551
:101AF800A7E0B0E0E2E8FDE00C94BB0E5C017A01DF
:101B0800C90127E0E7E3F3E0DE01119601900D92A9
:101B18002A95E1F7FB01C280D380848095800081FB
:101B28001181452B21F49E012F5F3F4F79010097CA
:101B380019F4C7010E94AC0FD7FC04C0C816D90617
:101B480008F4C6019401AC01B701C5010E94DE0B7F
:081B58002796ECE00C94D70E77
:101B6000CF930E944210C82F0E943A10CD3011F03E
:101B7000CA3089F4E0914803EE23E1F0F0E0E95146
:101B8000FD4F108284E493E00E94800F109248037E
:101B900087EE92E014C0E0914803EF3170F481E0E9
:101BA0008E0F80934803F0E0E951FD4FC08380E041
:101BB00090E005C080E090E002C080E090E0CF912E
:021BC000089586
:101BC200CF93DF93EC0190E0E92FF0E0EE0FFF1FDF
:101BD200EF5DFC4F8081811102C081810EC0A8811E
:101BE200B9812C91821305C091811196B983A88382
:101BF20001C09F5F9B3040F3892FDF91CF91089501
:101C0200FA0160387105CCF0623871051CF0633856
:101C1200710599F4A081B1819D012C5F3F4F318301
:101C220020834D915D916D917C91FC0140835183A4
:101C32006283738381E090E0089580E090E00895EC
:101C4200CF93DF9341155105A9F0DC01FB01EF01B0
:101C52008D91882351F09191992339F041305105AA
:101C620021F041505109891791F390E02881821B9C
:0E1C7200910902C080E090E0DF91CF910895CB
:101C800097FB10F8169400080F93083098F008504E
:101C9000232F342F452F562F672F782F892F902DE4
:101CA000F4CF0594979587957795679557954795C0
:0C1CB000379527950A95AAF70F91089523
:101CBC00A0E0B0E0E4E6FEE00C94BF0E6C01EB019A
:101CCC008A017B01E40EF51ECE15DF0541F08991EA
:101CDC00B601082E000C990B0E94810CF5CFC8019F
:0A1CEC00CDB7DEB7E8E00C94DB0E84
:101CF600A0E0B0E0E1E8FEE00C94BF0E8C016B01C1
:101D0600EC017E01E01AF10A6991662341F0062E84
:101D1600000C770BC6010E94F00F892B91F3C701C7
:0A1D2600CDB7DEB7E8E00C94DB0E49
:101D3000A0E0B0E0EEE9FEE00C94BF0E8C016B0178
:101D4000EC017E01E01AF10A6991662341F0062E4A
:101D5000000C770BC6010E94F00F892B91F7C70189
:0A1D6000CDB7DEB7E8E00C94DB0E0F
:101D6A002F923F924F925F926F927F928F929F92A1
:101D7A00AF92BF92CF92DF92EF92FF920F931F938F
:101D8A00CF93DF93CDB7DEB7CA1BDB0B0FB6F89440
:081D9A00DEBF0FBECDBF0994AE
:101DA2002A88398848885F846E847D848C849B84E9
:101DB200AA84B984C884DF80EE80FD800C811B81F7
:101DC200AA81B981CE0FD11D0FB6F894DEBF0FBE26
:061DD200CDBFED010895F4
:101DD800A2E0B0E0E2EFFEE00C94C30E8C015A835F
:101DE8004983AE014F5F5F4F0E949300F801208145
:101DF80024FF02C08FEF9FEF2296E4E00C94DF0EE1
:101E08009C012062215631092A31310550F09C018C
:101E18002053310981E090E02A30310520F080E03C
:081E2800089581E090E00895A7
:101E300087E690E00E94D60F87E093E00E94800F33
:101E40008AE193E00E94800F0E94B00D0097E1F3B9
:061E50000E941F0BF9CFF8
:101E56000F931F93CF93DF938B01EA01BC01C80157
:101E66000E94500FC00FD11F21971882DF91CF918A
:061E76001F910F91089579
:101E7C00A0E0B0E0E4E4FFE00C94C50EAE01475FD7
:101E8C005F4F6F8178858D819E810E945210E2E0B8
:041E9C000C94E10EB3
:101EA000DC01CB01FC01F999FECF06C0F2BDE1BD1A
:101EB000F89A319600B40D9241505040B8F7089509
:101EC000DB018F939F930E941310BF91AF91A29F4C
:101ED000800D911DA39F900DB29F900D1124089528
:101EE0006095709580959095309540955095219589
:101EF0003F4F4F4F5F4F6F4F7F4F8F4F9F4F089513
:101F0000CF93DF93EC018881882331F021960E94E2
:0E1F10003A1089918111FBCFDF91CF91089596
:101F1E00A29FB001B39FC001A39F700D811D11241C
:0E1F2E00911DB29F700D811D1124911D08950B
:101F3C00DC01FB019D912191921303C09111FACF09
:0C1F4C00292F892F90E0821B9109089535
:101F5800FC01AF014F5F5F4F2081222311F0FA018E
:0C1F6800F8CF9F01281B390BC901089518
:101F7400262FF999FECF1FBA92BD81BD20BD0FB6A1
:0C1F8400F894FA9AF99A0FBE019608959D
:101F9000689401C0E8948F929F92CF93DF930E9440
:0C1FA000300CDF91CF919F908F9008953E
:101FAC001092C00028E12093C1009093C50080934B
:0A1FBC00C40086E08093C20008957F
:101FC600FB01DB010D900020E9F7AD01461B570B25
:0A1FD600BC01CF010E941E10089507
:101FE000FC012E2F9F2F8191861721F08111F9CFAF
:081FF00090E00895822F08958E
:101FF8000024A7FD00942A17300540055005600508
:082008007005800590050895A4
:10201000EC010E9465100E946410CE010E946610BF
:06202000CE010E946210D7
:102026000E948F0FA59F900DB49F900DA49F800DC9
:06203600911D1124089524
:10203C00DC01CB0103C02D910E94BB0F41505040DD
:04204C00D0F708952C
:10205000FC01480F591FE417F50711F06193FBCFFE
:022060000895E1
:102062009C01215631092A31310510F48F759927C7
:022072000895CF
:10207400E0ECF0E0908195FFFDCF8093C6000895D9
:10208400E0ECF0E080818823ECF78091C6000895AD
:102094009C01215431092A31310508F480620895E4
:0E20A4009A01AB016FEF7FE70E94090D0895CE
:0820B20020E00E949C05089546
:0620BA0080E090E00895B3
:0420C0000C9400007C
:0420C4000E949100E5
:0220C800089579
:0220CA00089577
:0220CC00089575
:1020CE00457865637574696E6720636F6D6D616EBB
:1020DE00643A20000A007365747573657200536567
:1020EE007474696E6720757365723A200055736556
:1020FE007220736574207375636365737366756C94
:10210E006C790A0067657475736572007365747017
:10211E006173730050617373776F726420736574AB
:10212E00207375636365737366756C6C790A0067EB
:10213E00657470617373006770696F7700457272B2
:10214E006F723A20496E76616C696420666F726DAB
:10215E0061742E204578706563746564203078480C
:10216E00480A00504F52544200504F5254430050B0
:10217E004F52544400496E76616C696420706F72E0
:10218E00740A00506F7274206E6565647320746FEC
:10219E00206265207370656369666965640A00670D
:1021AE0070696F7200504F525442203D2025640AD0
:1021BE0000504F525443203D2025640A00504F5288
:1021CE005444203D2025640A00556E6B6E6F776E69
:1021DE0020636F6D6D616E640A0050617273696E7B
:1021EE006720636F6D6D616E643A20002000436F4F
:1021FE006D6D616E64206E616D653A20004172678F
:10220E00756D656E7420313A2000417267756D658B
:10221E006E7420323A2000456E74657220757365B7
:10222E00726E616D653A2000537563636573730A50
:10223E0000456E7465722070617373776F72643AC5
:10224E00200057726F6E6720757365726E616D65D3
:10225E002E2054727920616761696E2E0A00546FC8
:10226E006F206D616E7920617474656D7074732E5C
:10227E002054727920616761696E20696E20333057
:10228E00207365636F6E64730057726F6E67207094
:10229E00617373776F72642E205472792061676157
:0522AE00696E2E0A001C
:1022B30057656C636F6D6520746F204156522D4FC7
:0A22C300530A004C6F67696E0A00B1
:1022CD0068076C094C836A9074A07AC00080688896
:0622DD0000846C82008108
:0722E300286E756C6C2900E8
:0622EA00286E696C29005A
:0222F0000A00E2
:00000001FF
